:020000040000FA
:100000007820002065010000690100006B010000FC
:1000100000000000000000000000000000000000E0
:100020000000000000000000000000006D01000062
:1000300000000000000000006F01000071010000DE
:1000400073010000750100007701000079010000D4
:100050007B0100007D0100007F01000081010000A4
:100060008301000085010000870100008901000074
:100070008B0100008D0100004D0400009101000083
:100080009301000095010000970100009901000014
:100090009B0100009D0100009F010000A1010000E4
:1000A000A30100000000000000000000A501000006
:1000B000A7010000A9010000AB010000AD01000094
:1000C00000F002F800F03EF80CA030C80838241800
:1000D0002D18A246671EAB4654465D46AC4201D180
:1000E00000F030F87E460F3E0FCCB6460126334274
:1000F00000D0FB1AA246AB4633431847AC040000BD
:10010000CC040000103A02D378C878C1FAD852075C
:1001100001D330C830C101D504680C6070470000BD
:100120000023002400250026103A01D378C1FBD813
:10013000520700D330C100D50B6070471FB51FBDFB
:1001400010B510BD00F0FDF91146FFF7F7FF00F004
:10015000ECF800F015FA03B4FFF7F2FF03BC00F06F
:100160001BFA000015480047FEE7FEE7FEE7FEE742
:10017000FEE7FEE7FEE7FEE7FEE7FEE7FEE7FEE757
:10018000FEE7FEE7FEE7FEE7FEE7FEE7FEE7FEE747
:10019000FEE7FEE7FEE7FEE7FEE7FEE7FEE7FEE737
:1001A000FEE7FEE7FEE7FEE7FEE7FEE7FEE700000C
:1001B00003480449044A054B70470000C100000091
:1001C000780000207820002078100020781000208F
:1001D0008348806882498860084640681121490246
:1001E00008437F4948600846C06811214902084316
:1001F0007B49C860084680697A4908437849886124
:100200007948806878498860084640680321090277
:100210000843754948600846C0680321090208433D
:100220007149C860084680690F21090408436E4976
:1002300088616E4880686D49886008460068FF21C3
:100240000231084369490860084640686849084324
:10025000664948600846C068654908436349C86004
:1002600008468069634908436049886170475F4870
:100270008068614908405D498860084640687C2183
:1002800088435A4948600846C0687C21084357495A
:10029000C860084680695849C94308435349886182
:1002A00070475648C069564908435449C861C80157
:1002B000486270475149C9690122D20611434F4A29
:1002C000D1615049886B80098001282101430522B2
:1002D00011434C4A91630121484A916000BF47494C
:1002E0000968042211400429F9D10221434AD1604E
:1002F00081218900516000BF4049096802221140F4
:100300000229F9D13D49C969082211433B4AD1610B
:1003100001213D4A11603949C96908229143374A90
:10032000D161FF210731D1607047FFF7C3FFFFF7AD
:10033000B8FF00F06BF8FFF79AFFFFF749FF00F0F6
:1003400093F804464BE000F0B5F874280CD006DCB6
:100350003C2821D05C2817D06C282ED10CE07828BE
:1003600022D07C2829D127E01D48006801214902BC
:1003700008431B49086021E019480068012149022F
:1003800088431749086019E01548006801214903AE
:1003900008431349086011E011480068012149032E
:1003A00088430F49086009E00F48006803210902EB
:1003B00048400D49086001E000E000BF00BF7D211A
:1003C000C900204600F053F8002808D0074800680C
:1003D000074948400549086000F046F80446B2E77E
:1003E00000800A4000000C0C00800B4000000C4014
:1003F0008109000003C0C3000FC0FFFF00000240DE
:100400000040A00100800D400080014000202449F0
:10041000086024480068401C00017D21C900484351
:100420001F49886002201E494031886101201C4913
:10043000C8600E2001218140420992001A4BD21857
:10044000116000BF0020194908607047144840300F
:100450004069174908401249403148611348006813
:10046000401C12490860704710480068704700B58A
:100470000246FFF7F9FF831A481C834201D301208B
:1004800000BD0020FCE730B50446FFF7EDFF054650
:1004900000BF21462846FFF7EAFF0028F9D030BD0B
:1004A000000007400400002000E100E00000002000
:1004B000FDFF000010B51D4800687C21084004467F
:1004C0001B480078002802D001282CD10EE01948E2
:1004D0000068844208D0012015490870FFF7C4FF66
:1004E000154908607C2010BD7C20FCE7642112487F
:1004F0000068FFF7BCFF002810D00E480068844257
:1005000007D00C48046000200949087009480068B9
:10051000E9E70020064908707C20E4E7012004494F
:1005200008707C20DFE77C20DDE7000000000C4045
:10053000080000200C0000201000002070477047C9
:100540007047754600F024F8AE46050069465346EC
:10055000C008C000854618B020B5FFF729FE60BC72
:1005600000274908B6460026C0C5C0C5C0C5C0C5DD
:10057000C0C5C0C5C0C5C0C5403D49008D46704717
:1005800010B50446C046C0462046FFF7E4FD10BD46
:10059000004870471400002001491820ABBEFEE758
:1005A0002600020070470000C8050000000000207F
:1005B0001400000004010000DC050000140000200D
:1005C0006420000020010000000000000200000084
:0C05D000000000007C00000000000000A3
:04000005000000C136
:00000001FF
